:020000040800F2
:10000000FF7F0020B91A0008FD1A0008FD1A000839
:10001000FD1A0008FD1A0008FD1A00080000000083
:100020000000000000000000000000004117000870
:10003000FD1A0008000000003118000879180008B7
:10004000FD1A0008FD1A0008FD1A0008FD1A000834
:10005000FD1A0008FD1A0008FD1A0008FD1A000824
:10006000FD1A0008FD1A0008FD1A0008FD1A000814
:10007000FD1A0008FD1A0008FD1A0008FD1A000804
:10008000FD1A0008FD1A0008FD1A0008FD1A0008F4
:10009000FD1A0008FD1A0008FD1A0008FD1A0008E4
:1000A000FD1A0008FD1A0008FD1A0008FD1A0008D4
:1000B000FD1A0008FD1A0008FD1A0008FD1A0008C4
:1000C000FD1A0008FD1A0008FD1A0008FD1A0008B4
:1000D000FD1A0008FD1A0008FD1A0008FD1A0008A4
:1000E000FD1A0008FD1A0008FD1A0008FD1A000894
:1000F000FD1A0008000000000000000000000000E1
:0C01000000000000000000005FF808F1A3
:1001100010402DE928409FE50030D4E5000053E36E
:100120000500001A1C309FE5000053E318009F15DE
:1001300000F020130130A0E30030C4E51040BDE81A
:100140001EFF2FE13004002000000000601D0008A9
:100150003C309FE5000053E310402DE934109F151B
:1001600034009F1500F0201330009FE5003090E52B
:10017000000053E30100001A1040BDE81EFF2FE10C
:100180001C309FE5000053E3FAFFFF0A1040BDE872
:1001900013FF2FE10000000034040020601D000860
:1001A000300400200000000080B584B002AF0123BD
:1001B000FB710023BB71FB79BB711E4A1D4BDB69D0
:1001C00043F00103D3611C4A1B4B1B6843F480635B
:1001D0001360194A184B5B6943F0200353610022F6
:1001E0000421282000F0FEF80246144B1A60134B3D
:1001F0001B68002B00D1FEE700230193012300932D
:10020000002319220E490F4800F07CFC0346012B05
:100210000ED10023019301230093002319220A49E0
:100220000A4800F06FFC0346012B01D100F0AAFD43
:10023000FEE700BF00380240000002404C040020EE
:10024000901D0008C1020008941D0008510200081A
:1002500080B584B000AF78600123FB60144A144B72
:10026000DB6943F00403D361124B1B6903F40053B1
:10027000002B18D1104A104B5B6923F02003536107
:100280000E4B186807F10C010023002200F0F6F86D
:10029000FB680133FB60FB68052B01D90123FB6080
:1002A000C82000F04BFD322000F048FDDCE700BF25
:1002B0000038024000080240000002404C040020C8
:1002C00080B584B000AF78600023FB60164B1868DF
:1002D00007F10C010023002200F07AF90346012BFC
:1002E0001ED14FF4967000F029FD13E00F4A0F4B1A
:1002F0005B6943F0200353614FF4967000F01EFDDC
:100300000A4A0A4B5B6923F0200353614FF42F70B4
:1003100000F014FDFB685A1EFA60002BE6D1D5E709
:10032000322000F00BFDD1E74C0400200000024019
:1003300080B584B000AF786039607B68FB6001F005
:1003400041FAFB681A68FB68DB6BF968096C01FB12
:1003500003F31A44FB685A60FB6800229A63FB6847
:100360001A68FB689A60FB681A68FB68DB6B013BE4
:10037000F968096C01FB03F31A44FB68DA60FB6857
:10038000FF2283F84420FB68FF2283F845203B6866
:10039000002B14D1FB681B69002B1AD0FB681033AB
:1003A000184600F0C9FE0346002B12D00C4B4FF04C
:1003B00080521A60BFF34F8FBFF36F8F09E0FB6865
:1003C0001033184600F0ECFAFB682433184600F0AE
:1003D000E7FA01F00FFA012318461037BD4680BD39
:1003E00004ED00E080B58AB002AFF860B960134652
:1003F000FB71BB68002B02D10023FB6104E0FB68AA
:10040000BA6802FB03F3FB61FB694833184601F04D
:1004100065FAB861BB69002B0BD0BB6948337B61BF
:10042000FA79BB69009313467A69B968F86800F0F5
:1004300005F8BB6918462037BD4680BD80B584B03D
:1004400000AFF860B9607A60FB70BB68002B03D125
:10045000BB69BA691A6002E0BB697A681A60BB6955
:10046000FA68DA63BB69BA681A640121B869FFF7F0
:100470005FFF00BF1037BD4680BD00BF80B58AB0AA
:1004800000AFF860B9607A603B6000237B62FB6874
:100490003B6201F097F93B6A9A6B3B6ADB6B9A42CD
:1004A00002D33B68022B29D13A68B968386A00F058
:1004B00067F9F8613B6A5B6A002B10D03B6A243312
:1004C000184600F039FE0346002B13D03F4B4FF087
:1004D00080521A60BFF34F8FBFF36F8F0AE0FB6942
:1004E000002B07D0394B4FF080521A60BFF34F8F6B
:1004F000BFF36F8F01F07EF9012363E07B68002B6F
:1005000003D101F077F900235CE07B6A002B06D170
:1005100007F11403184600F063FE01237B6201F02B
:1005200069F900F065FC01F04DF93B6A93F844303D
:100530005BB2B3F1FF3F03D13B6A002283F8442052
:100540003B6A93F845305BB2B3F1FF3F03D13B6A9E
:10055000002283F8452001F04DF93A1D07F11403FC
:100560001146184600F052FE0346002B24D1386A8B
:1005700000F0FEF90346002B18D03B6A10337A686E
:100580001146184600F0C2FD386A00F089F900F003
:100590003DFC0346002B7FF47CAF0C4B4FF08052A8
:1005A0001A60BFF34F8FBFF36F8F72E7386A00F0A6
:1005B00077F900F02BFC6CE7386A00F071F900F075
:1005C00025FC002318462837BD4680BD04ED00E019
:1005D00080B58AB000AFF860B9607A603B600023F4
:1005E0007B62FB683B6201F0EDF83B6A9B6BFB6151
:1005F000FB69002B46D03B6ADB68BB61B968386A8F
:1006000000F028F93B68002B21D1FB695A1E3B6A98
:100610009A633B6A1B68002B04D100F0D9FF0246A5
:100620003B6A5A603B6A1B69002B27D03B6A103338
:10063000184600F081FD0346002B1FD04F4B4FF0B2
:1006400080521A60BFF34F8FBFF36F8F16E03B6A83
:10065000BA69DA603B6A5B6A002B0FD03B6A2433CD
:10066000184600F069FD0346002B07D0434B4FF0BE
:1006700080521A60BFF34F8FBFF36F8F01F0BAF84B
:10068000012377E07B68002B03D101F0B3F800234E
:1006900070E07B6A002B06D107F11003184600F0CA
:1006A0009FFD01237B6201F0A5F800F0A1FB01F0A2
:1006B00089F83B6A93F844305BB2B3F1FF3F03D152
:1006C0003B6A002283F844203B6A93F845305BB2D2
:1006D000B3F1FF3F03D13B6A002283F8452001F0CC
:1006E00089F83A1D07F110031146184600F08EFDF7
:1006F0000346002B31D1386A00F024F90346002B61
:1007000025D03B6A1B68002B08D101F05BF83B6ADF
:100710005B68184600F082FE01F06CF83B6A2433F7
:100720007A681146184600F0F1FC386A00F0B8F813
:1007300000F06CFB0346002B7FF455AF0F4B4FF0DE
:1007400080521A60BFF34F8FBFF36F8F4BE7386A49
:1007500000F0A6F800F05AFB45E7386A00F0A0F870
:1007600000F054FB386A00F0EDF80346002B3FF42C
:100770003AAF002318462837BD4680BD04ED00E09F
:1007800080B586B000AFF860B9607A6000237B6105
:10079000FB689B6B3B61FB681B6C002B0DD1FB68FE
:1007A0001B68002B4DD1FB685B68184600F0ACFE5F
:1007B0007861FB6800225A6043E07B68002B19D106
:1007C000FB689868FB681B6C1A46B96801F0E6F98B
:1007D000FB689A68FB681B6C1A44FB689A60FB68AC
:1007E0009A68FB685B689A422BD3FB681A68FB68BF
:1007F0009A6026E0FB68D868FB681B6C1A46B968EB
:1008000001F0CCF9FB68DA68FB681B6C5B421A44A8
:10081000FB68DA60FB68DA68FB681B689A4207D2FB
:10082000FB685A68FB681B6C5B421A44FB68DA6021
:100830007B68022B05D13B69002B02D03B69013B51
:100840003B613B695A1CFB689A637B691846183701
:10085000BD4680BD80B582B000AF786039607B68EE
:100860001B6C002B18D07B68DA687B681B6C1A4401
:100870007B68DA607B68DA687B685B689A4203D3DE
:100880007B681A687B68DA607B68D9687B681B6C58
:100890001A46386801F082F900BF0837BD4680BDAE
:1008A00080B584B000AF786000F08CFF7B6893F86F
:1008B0004530FB7311E07B685B6A002B12D07B68CC
:1008C0002433184600F038FC0346002B01D000F01A
:1008D000E1FCFB7B013BDBB2FB7397F90F30002B94
:1008E000E9DC00E000BF7B68FF2283F8452000F0D0
:1008F00081FF00F067FF7B6893F84430BB7311E021
:100900007B681B69002B12D07B681033184600F0FF
:1009100013FC0346002B01D000F0BCFCBB7B013B69
:10092000DBB2BB7397F90E30002BE9DC00E000BFAF
:100930007B68FF2283F8442000F05CFF00BF103783
:10094000BD4680BD80B584B000AF786000F03AFF4E
:100950007B689B6B002B02D10123FB6001E000232D
:10096000FB6000F047FFFB6818461037BD4680BDAE
:1009700080B584B000AF786000F024FF7B689A6B8C
:100980007B68DB6B9A4202D10123FB6001E000230C
:10099000FB6000F02FFFFB6818461037BD4680BD96
:1009A00080B483B000AF78607B6803F108027B6895
:1009B0005A607B684FF0FF329A607B6803F108024F
:1009C0007B68DA607B6803F108027B681A617B68E8
:1009D00000221A6000BF0C37BD4680BC704700BFC4
:1009E00080B483B000AF78607B6800221A6100BFDA
:1009F0000C37BD4680BC704780B485B000AF7860CE
:100A000039607B685B68FB603B68FA685A60FB682A
:100A10009A683B689A60FB689B683A685A60FB6812
:100A20003A689A603B687A681A617B681B685A1C4E
:100A30007B681A6000BF1437BD4680BC704700BF9A
:100A400080B485B000AF786039603B681B68BB60DC
:100A5000BB68B3F1FF3F03D17B681B69FB600CE00F
:100A60007B680833FB6002E0FB685B68FB60FB6847
:100A70005B681A68BB689A42F6D9FB685A683B689B
:100A80005A603B685B683A689A603B68FA689A60AB
:100A9000FB683A685A603B687A681A617B681B6831
:100AA0005A1C7B681A6000BF1437BD4680BC704773
:100AB00080B485B000AF78607B681B69FB607B68A1
:100AC0005B687A6892689A607B689B687A6852680B
:100AD0005A60FB685A687B689A4203D17B689A68BF
:100AE000FB685A607B6800221A61FB681B685A1E0B
:100AF000FB681A60FB681B6818461437BD4680BC4B
:100B0000704700BF80B58CB004AFF860B9603B603F
:100B10001346FB80FB889B00184600F0DFFE7861DF
:100B20007B69002B0ED0542000F0D8FEF861FB69E1
:100B3000002B03D0FB697A691A6305E0786900F03D
:100B400059FF01E00023FB61FB69002B13D0FA88F9
:100B500000230393FB690293FB6A0193BB6A009332
:100B60003B68B968F86800F00FF8F86900F07CF8A5
:100B70000123BB6102E04FF0FF33BB61BB69184644
:100B80002037BD4680BD00BF80B586B000AFF8609D
:100B9000B9607A603B60BB6A1A6B7B6803F1804383
:100BA000013B9B0013443B613B6923F007033B611E
:100BB00000237B6112E0BA687B6913441978BA6A32
:100BC0007B69134434330A461A70BA687B6913444C
:100BD0001B78002B06D07B6901337B617B690F2B6F
:100BE000E9D900E000BFBB6A002283F843203B6ADA
:100BF000022B01D902233B62BB6A3A6ADA62BB6A02
:100C00003A6A5A64BB6A00229A64BB6A0433184683
:100C1000FFF7E6FEBB6A18331846FFF7E1FEBB6A32
:100C2000BA6A1A613B6AC3F10302BB6A9A61BB6A82
:100C3000BA6A5A62BB6A0022DA64BB6A002283F88D
:100C400050203A68F968386900F03CFD0246BB6AFA
:100C50001A607B6A002B02D07B6ABA6A1A6000BFF6
:100C60001837BD4680BD00BF80B582B000AF786048
:100C700000F0A8FD2A4B1B680133294A1360294B59
:100C80001B68002B09D1274A7B681360244B1B6823
:100C9000012B10D100F012FB0DE0234B1B68002B41
:100CA00009D1204B1B68DA6A7B68DB6A9A4202D85A
:100CB0001C4A7B6813601D4B1B6801331B4A136081
:100CC0007B68DB6A01229A40194B1B681343184A60
:100CD00013607B68DA6A13469B0013449B00154A35
:100CE0001A447B68043319461046FFF785FE00F06E
:100CF00081FD0D4B1B68002B0ED00A4B1B68DA6A76
:100D00007B68DB6A9A4207D20B4B4FF080521A6025
:100D1000BFF34F8FBFF36F8F00BF0837BD4680BD55
:100D200000050020500400200C0500201C050020B8
:100D3000080500205404002004ED00E080B584B0D4
:100D400000AF78600023FB607B68002B08D000F0C8
:100D50004FF80021786800F04FFC00F057F8F86079
:100D6000FB68002B07D1064B4FF080521A60BFF38F
:100D70004F8FBFF36F8F00BF1037BD4680BD00BFE0
:100D800004ED00E080B584B002AF134B0193002363
:100D900000930023192211491148FFF7B3FE786030
:100DA0007B68012B14D14FF0BF0383F31188BFF38D
:100DB0006F8FBFF34F8F3B600A4B4FF0FF321A60CB
:100DC000094B01221A60094B00221A6000F0DCFC7A
:100DD00000BF0837BD4680BD24050020981D0008CF
:100DE000AD120008200500200C050020040500209D
:100DF00080B400AF044B1B680133034A136000BF8B
:100E0000BD4680BC704700BF2805002080B584B077
:100E100000AF0023FB600023BB6000F0D3FC394B24
:100E20001B68013B374A1360364B1B68002B61D1AE
:100E3000354B1B68002B5DD02EE0344BDB68DB6844
:100E4000FB60FB6818331846FFF732FEFB6804337B
:100E50001846FFF72DFEFB68DB6A01229A402C4BF7
:100E60001B6813432A4A1360FB68DA6A13469B0027
:100E700013449B00274A1A44FB6804331946104662
:100E8000FFF7BAFDFB68DA6A234B1B68DB6A9A42FC
:100E900002D3224B01221A601C4B1B68002BCCD1C1
:100EA000FB68002B01D000F095FA1D4B1B687B609E
:100EB0007B68002B10D000F037F80346002B02D0DF
:100EC000164B01221A607B68013B7B607B68002B1C
:100ED000F1D1134B00221A60104B1B68002B09D074
:100EE0000123BB600F4B4FF080521A60BFF34F8F4E
:100EF000BFF36F8F00F07EFCBB6818461037BD460D
:100F000080BD00BF2805002000050020C00400208F
:100F1000080500205404002050040020140500207F
:100F20001005002004ED00E080B586B000AF00237E
:100F30007B61484B1B68002B7CD1474B1B680133FE
:100F40003B61454A3B6913603B69002B10D1434B21
:100F50001B68FB60424B1B68404A1360404AFB68B9
:100F60001360404B1B6801333E4A136000F032FAB5
:100F70003D4B1B683A699A424DD3384B1B681B683E
:100F8000002B01D1012300E00023002B04D0364BBD
:100F90004FF0FF321A603EE0304B1B68DB68DB68C5
:100FA000BB60BB685B687B603A697B689A4203D22E
:100FB0002D4A7B6813602EE0BB6804331846FFF7A8
:100FC00077FDBB689B6A002B04D0BB6818331846BA
:100FD000FFF76EFDBB68DB6A01229A40234B1B685A
:100FE0001343224A1360BB68DA6A13469B0013441A
:100FF0009B001F4A1A44BB68043319461046FFF78A
:10100000FBFCBB68DA6A1B4B1B68DB6A9A42B4D3F1
:1010100001237B61B1E7174B1B68DA6A1449134659
:101020009B0013449B000B441B68012B07D9012331
:101030007B6104E0104B1B6801330F4A13600F4BB8
:101040001B68002B01D001237B617B691846183790
:10105000BD4680BD2805002004050020B8040020FE
:10106000BC040020180500202005002008050020F1
:101070005404002050040020100500201405002016
:1010800080B485B000AF1C4B1B68002B03D01B4BFA
:1010900001221A602AE0194B00221A60184B1B68C3
:1010A0007B607B68B3FA83F3FB70FB78C3F11F03AB
:1010B000FB60FA6813469B0013449B00114A1344DB
:1010C000BB60BB685B685A68BB685A60BB685A689B
:1010D000BB6808339A4204D1BB685B685A68BB6836
:1010E0005A60BB685B68DB68074A136000BF14374F
:1010F000BD4680BC704700BF2805002014050020B5
:1011000008050020540400205004002080B582B05F
:1011100000AF78603960074B1B6818331946786850
:10112000FFF78EFC0121386800F066FA00BF08372F
:10113000BD4680BD5004002080B584B000AF78600B
:101140007B68DB68DB68BB60BB6818331846FFF759
:10115000AFFC1D4B1B68002B1CD1BB680433184629
:10116000FFF7A6FCBB68DB6A01229A40174B1B689D
:101170001343164A1360BB68DA6A13469B00134494
:101180009B00134A1A44BB68043319461046FFF704
:1011900033FC05E0BB68183319460E48FFF72CFCFA
:1011A000BB68DA6A0C4B1B68DB6A9A4205D90123DB
:1011B000FB600A4B01221A6001E00023FB60FB6820
:1011C00018461037BD4680BD2805002008050020C0
:1011D00054040020C0040020500400201405002006
:1011E00080B483B000AF7860064B1A687B681A60E1
:1011F000054B1A687B685A6000BF0C37BD4680BC3F
:10120000704700BF180500200405002080B584B099
:1012100000AF7860396000F0D5FA1C4B1B68BB60EA
:101220003B681B68B3F1FF3F02D10023FB6026E05F
:101230007B681A68164B1B689A4207D07B685A680D
:10124000BB689A4202D80123FB6018E07B685B68A8
:10125000BA68D21A3B681B689A420ED23B681A6879
:101260007B685968BB68CB1A1A443B681A60786877
:10127000FFF7B6FF0023FB6001E00123FB6000F0F5
:10128000B9FAFB6818461037BD4680BD040500203A
:101290001805002080B400AF034B01221A6000BF84
:1012A000BD4680BC704700BF1405002080B582B0E9
:1012B00000AF786000F042F8FCE700BF80B582B074
:1012C00000AF00237B600CE07A6813469B00134458
:1012D0009B00124A13441846FFF762FB7B680133F8
:1012E0007B607B68022BEFD90D48FFF759FB0D4857
:1012F000FFF756FB0C48FFF753FB0C48FFF750FB7A
:101300000B48FFF74DFB0B4B054A1A600A4B054A89
:101310001A6000BF0837BD4680BD00BF54040020DE
:1013200090040020A4040020C0040020D404002065
:10133000EC040020B8040020BC04002080B582B07A
:1013400000AF28E0FFF754FD174B1B68002B0CBFC4
:1013500001230023DBB27B60FFF758FD7B68002B85
:1013600019D100F02FFA104BDB68DB683B603B685B
:1013700004331846FFF79CFB0C4B1B68013B0B4AE0
:1013800013600B4B1B68013B094A136000F032FAF3
:10139000386800F00FF8064B1B68002BD2D100BF55
:1013A0000837BD4680BD00BFD404002000050020E2
:1013B000E804002080B582B000AF78607B681B6BCA
:1013C000184600F017FB786800F014FB00BF0837E0
:1013D000BD4680BD80B483B000AF0E4B1B681B6858
:1013E000002B01D1012300E00023002B04D00A4B85
:1013F0004FF0FF321A6008E0064B1B68DB68DB68C1
:101400007B607B685B68044A136000BF0C37BD4695
:1014100080BC7047B80400202005002080B584B04F
:1014200000AF78607B68FB607B68002B62D0FB6854
:10143000DA6A324B1B68DB6A9A425BD2FB689B69B3
:10144000002B06DB2D4B1B68DB6AC3F10302FB6834
:101450009A61FB685969FB68DA6A13469B0013447A
:101460009B00274A1344994201D1012300E0002345
:10147000002B3AD0FB6804331846FFF719FB0346EC
:10148000002B15D1FB68DA6A1D4913469B001344F3
:101490009B000B441B68002B0AD1FB68DB6A01220E
:1014A00002FA03F3DA43174B1B681340154A136023
:1014B000124B1B68DA6AFB68DA62FB68DB6A01229E
:1014C0009A40104B1B6813430E4A1360FB68DA6A9C
:1014D00013469B0013449B00094A1A44FB680433DB
:1014E00019461046FFF788FA04E0044B1B68DA6AD5
:1014F000FB68DA6200BF1037BD4680BD5004002093
:10150000540400200805002080B584B000AF786046
:101510007B68BB600023FB607B68002B4FD0BB68FF
:101520009B6C5A1EBB689A64BB68DA6ABB685B6CCA
:101530009A4244D0BB689B6C002B40D1BB680433FB
:101540001846FFF7B5FA0346002B15D1BB68DA6AD7
:101550001D4913469B0013449B000B441B68002B42
:101560000AD1BB68DB6A012202FA03F3DA43174BA4
:101570001B681340154A1360BB685A6CBB68DA627B
:10158000BB68DB6AC3F10302BB689A61BB68DB6AB4
:1015900001229A400D4B1B6813430C4A1360BB6831
:1015A000DA6A13469B0013449B00074A1A44BB683F
:1015B000043319461046FFF71FFA0123FB60FB684E
:1015C00018461037BD4680BD540400200805002091
:1015D00080B400AF074B1B68002B04D0054B1B6881
:1015E0009A6C01329A64034B1B681846BD4680BC56
:1015F000704700BF5004002080B584B000AF786011
:101600003960294B1B68FB60284B1B680433184664
:10161000FFF74EFA0346002B0BD1244B1B68DB6A05
:10162000012202FA03F3DA43214B1B681340204ADC
:1016300013607B68B3F1FF3F0AD13B68002B07D0F2
:101640001A4B1B68043319461A48FFF7D5F926E0F0
:10165000FA687B681344BB60144B1B68BA685A6015
:10166000BA68FB689A4209D2134B1A680F4B1B6881
:10167000043319461046FFF7E3F910E00F4B1A68E0
:101680000A4B1B68043319461046FFF7D9F90C4B77
:101690001B68BA689A4202D2094ABB68136000BF4D
:1016A0001037BD4680BD00BF040500205004002057
:1016B00008050020EC040020BC040020B804002031
:1016C0002005002080B485B000AFF860B9607A6072
:1016D000FB68043BFB60FB684FF080721A60FB689C
:1016E000043BFB60BB6823F00102FB681A60FB68E7
:1016F000043BFB60084AFB681A60FB68143BFB6014
:101700007A68FB681A60FB68203BFB60FB68184640
:101710001437BD4680BC70471D17000880B483B0E5
:1017200000AF4FF0BF0383F31188BFF36F8FBFF398
:101730004F8F7B60FEE700BF00000000000000004C
:10174000074B19680868B0E8F00F80F30988BFF309
:101750006F8F4FF0000080F311884EF00D0E704730
:101760005004002000BF00BF06480068006880F3F6
:10177000088862B661B6BFF34F8FBFF36F8F00DF8B
:1017800000BF00BF08ED00E080B500AF0B4A0B4B77
:101790001B6843F47F031360084A084B1B6843F03F
:1017A0007F43136000F088F8054B00221A60FFF7B2
:1017B000DBFFFFF7B3FF0023184680BD20ED00E0FC
:1017C0000000002080B483B000AF4FF0BF0383F36C
:1017D0001188BFF36F8FBFF34F8F7B60044B1B6883
:1017E0000133034A136000BF0C37BD4680BC70470D
:1017F0000000002080B483B000AF094B1B68013BA0
:10180000074A1360064B1B68002B04D100237B6042
:101810007B6883F3118800BF0C37BD4680BC7047DE
:101820000000002000000000000000000000000098
:10183000EFF30980BFF36F8F0D4B1A6820E9F00FAB
:1018400010602DE908404FF0BF0080F31188FFF7CA
:1018500017FC4FF0000080F31188BDE808401968BC
:101860000868B0E8F00F80F30988BFF36F8F704706
:101870005004002000BF00BF80B582B000AF4FF021
:10188000BF0383F31188BFF36F8FBFF34F8F3B60AC
:10189000FFF74AFB0346002B03D0064B4FF0805264
:1018A0001A6000237B607B6883F3118800BF0837D0
:1018B000BD4680BD04ED00E080B400AF054B47F6A7
:1018C000FF421A60044B07221A6000BFBD4680BC6D
:1018D000704700BF14E000E010E000E080B588B081
:1018E00000AF786000237B61FFF782FA3D4B1B68F5
:1018F000002B04D100F0B8F83A4B01221A607B6843
:10190000002B0ED008231A467B6813447B607B684B
:1019100003F00703002B04D07B6823F00703083390
:101920007B607B68002B56D07B68B3F5787F52D202
:101930002D4BBB612C4B1B68FB6104E0FB69BB6159
:10194000FB691B68FB61FB695A687B689A4203D29A
:10195000FB691B68002BF1D1FB69244A93423AD002
:10196000BB691B68082213447B61FB691A68BB6969
:101970001A60FB695A687B68D31A082252009342A6
:1019800022D9FA697B681344FB60FB695A687B685B
:10199000D21AFB685A60FB697A685A60FB685B6818
:1019A000BB60114B3B6102E03B691B683B613B69DB
:1019B0001B685A68BB689A42F6D33B691A68FB6891
:1019C0001A603B69FA681A60094B1A68FB695B6820
:1019D000D31A074A1360FFF719FA7B6918462037B4
:1019E000BD4680BD24090020140900201C090020E8
:1019F0000400002080B586B000AF78607B683B6152
:101A00007B68002B27D008235B423A6913443B6173
:101A10003B69FB60FFF7ECF9FB685B68BB60104B50
:101A20007B6102E07B691B687B617B691B685A688C
:101A3000BB689A42F6D37B691A68FB681A607B69B7
:101A4000FA681A60FB685A68064B1B681344054A1B
:101A50001360FFF7DBF900BF1837BD4680BD00BF3C
:101A6000140900200400002080B483B000AF0F4BA5
:101A700023F007037B600E4A7B6813600C4B002247
:101A80005A600C4B4FF478725A600A4B00221A606D
:101A90007B683B603B684FF478725A603B68054A4C
:101AA0001A6000BF0C37BD4680BC7047340500206B
:101AB000140900201C090020002103E00A4B5B5898
:101AC0004350043109480A4B42189A42F6D3094A56
:101AD00002E0002342F8043B074B9A42F9D300F09E
:101AE0000FF8FEF761FB7047B41D000800000020EE
:101AF000300400203004002028090020FEE7000008
:101B000080B400AF224A224B1B6843F001031360EC
:101B100000BF1F4B1B6803F00203002BF9D01C4AC7
:101B20001B4B9B6843F488039360194A184B1B684E
:101B300043F08073136000BF154B1B6803F0007304
:101B4000002BF9D0134B04221A60124A114B1B6868
:101B500043F0010313600F4A0E4B1B6843F002036E
:101B600013600B4A0A4B9B6843F003039360084AD7
:101B7000074B1B6823F480731360054B0022DA6067
:101B8000054B04229A6000BFBD4680BC704700BF71
:101B900000380240003C024000ED00E070B50F2A22
:101BA00034D90C0004430B00A40733D11500040002
:101BB000103D2D0901352D0149191E6826605E680A
:101BC00066609E68A660DE681033E6601034994255
:101BD000F3D10F2345191340032B1DD91C1F0023DC
:101BE000A4080134A400CE58EE5004339C42FAD12C
:101BF00003232D1909191A4005D00023CC5CEC549D
:101C000001339A42FAD170BC02BC08470500002A91
:101C1000F3D1F8E70500F0E71A00F8E7044B10B538
:101C2000002B02D0034800F007F810BC01BC0047AD
:101C3000000000004D1C000810B501000023002228
:101C4000002000F021F810BC02BC084770B50A4B18
:101C50000A4CE41AA4100AD0094AA518AD00ED18E0
:101C60002B68013C00F00EF8043D002CF8D100F088
:101C700083F870BC01BC0047B01D0008B41D00080B
:101C8000FFFFFF3F1847C046F8B544465F4656463B
:101C90004D469B46304BF0B41C68A4235B00050006
:101CA000E0580E00904600284DD043681F2B0FDCF3
:101CB0005C1C002D23D102339B0044601E50002089
:101CC0003CBC90469946A246AB46F8BC02BC0847CD
:101CD000224B002B3CD0C8204000AFF300800028EE
:101CE00036D0A42200235200A15843600160A050C6
:101CF00040328350043283500124002DDBD09A00FF
:101D000091468144424688214F467A50C42252006F
:101D10009046804442468739994012680A43944667
:101D20008A46424661461160842249465F46520017
:101D30008F50022DBFD1020055468D32FF321168FF
:101D40000D431560B7E720004D30FF30E050ACE7A1
:101D500001204042B4E7C046A41D00080000000076
:101D60000DC0A0E1F8DF2DE904B04CE228D04BE231
:101D7000F06F9DE81EFF2FE10DC0A0E1F8DF2DE917
:101D800004B04CE228D04BE2F06F9DE81EFF2FE13B
:101D90004C45440042544E0049444C45000000006C
:081DA0004300000008000020D0
:081DA8001D1C00085001000899
:041DB0001001000816
:101DB400AAAAAAAAE003000000000000F40200207E
:101DC4005C030020C40300200000000000000000A9
:101DD40000000000000000000000000000000000FF
:101DE400000000000000000000000000A01D00082A
:101DF40000000000000000000000000000000000DF
:101E040000000000000000000000000000000000CE
:101E140000000000000000000000000000000000BE
:101E240000000000000000000000000000000000AE
:101E3400000000000000000000000000000000009E
:101E4400000000000000000000000000000000008E
:101E5400000000000000000000000000000000007E
:101E640001000000000000000E33CDAB34126DE61B
:101E7400ECDE05000B000000000000000000000084
:101E8400000000000000000000000000000000004E
:101E9400000000000000000000000000000000003E
:101EA400000000000000000000000000000000002E
:101EB400000000000000000000000000000000001E
:0400000508001AB91C
:00000001FF
